{
  "address": "0x07ED7EeD59E73fE83de882C43D221c45b38B9127",
  "abi": [
    {
      "inputs": [
        {
          "internalType": "address payable",
          "name": "_feeVaultAddress",
          "type": "address"
        }
      ],
      "stateMutability": "nonpayable",
      "type": "constructor"
    },
    {
      "anonymous": false,
      "inputs": [
        {
          "indexed": false,
          "internalType": "address",
          "name": "donator",
          "type": "address"
        },
        {
          "indexed": false,
          "internalType": "address",
          "name": "feeVaultAddress",
          "type": "address"
        },
        {
          "indexed": false,
          "internalType": "uint256",
          "name": "amount",
          "type": "uint256"
        }
      ],
      "name": "Donate",
      "type": "event"
    },
    {
      "anonymous": false,
      "inputs": [
        {
          "indexed": true,
          "internalType": "uint256",
          "name": "itemId",
          "type": "uint256"
        },
        {
          "indexed": true,
          "internalType": "address",
          "name": "nftContract",
          "type": "address"
        },
        {
          "indexed": true,
          "internalType": "uint256",
          "name": "tokenId",
          "type": "uint256"
        },
        {
          "indexed": false,
          "internalType": "address",
          "name": "seller",
          "type": "address"
        },
        {
          "indexed": false,
          "internalType": "address",
          "name": "owner",
          "type": "address"
        },
        {
          "indexed": false,
          "internalType": "address",
          "name": "feeVaultAddress",
          "type": "address"
        },
        {
          "indexed": false,
          "internalType": "uint256",
          "name": "price",
          "type": "uint256"
        },
        {
          "indexed": false,
          "internalType": "bool",
          "name": "sold",
          "type": "bool"
        }
      ],
      "name": "MarketplaceItemCreated",
      "type": "event"
    },
    {
      "inputs": [
        {
          "internalType": "address",
          "name": "nftContract",
          "type": "address"
        },
        {
          "internalType": "uint256",
          "name": "tokenId",
          "type": "uint256"
        },
        {
          "internalType": "uint256",
          "name": "price",
          "type": "uint256"
        }
      ],
      "name": "createMarketplaceItem",
      "outputs": [],
      "stateMutability": "payable",
      "type": "function"
    },
    {
      "inputs": [
        {
          "internalType": "address",
          "name": "nftContract",
          "type": "address"
        },
        {
          "internalType": "uint256",
          "name": "itemId",
          "type": "uint256"
        }
      ],
      "name": "createMarketplaceSale",
      "outputs": [],
      "stateMutability": "payable",
      "type": "function"
    },
    {
      "inputs": [],
      "name": "donate",
      "outputs": [],
      "stateMutability": "payable",
      "type": "function"
    },
    {
      "inputs": [],
      "name": "feePercent",
      "outputs": [
        {
          "internalType": "uint256",
          "name": "",
          "type": "uint256"
        }
      ],
      "stateMutability": "view",
      "type": "function"
    },
    {
      "inputs": [],
      "name": "fetchItemsCreated",
      "outputs": [
        {
          "components": [
            {
              "internalType": "uint256",
              "name": "itemId",
              "type": "uint256"
            },
            {
              "internalType": "address",
              "name": "nftContract",
              "type": "address"
            },
            {
              "internalType": "uint256",
              "name": "tokenId",
              "type": "uint256"
            },
            {
              "internalType": "address payable",
              "name": "seller",
              "type": "address"
            },
            {
              "internalType": "address payable",
              "name": "owner",
              "type": "address"
            },
            {
              "internalType": "address payable",
              "name": "feeVaultAddress",
              "type": "address"
            },
            {
              "internalType": "uint256",
              "name": "price",
              "type": "uint256"
            },
            {
              "internalType": "bool",
              "name": "sold",
              "type": "bool"
            }
          ],
          "internalType": "struct Marketplace.MarketplaceItem[]",
          "name": "",
          "type": "tuple[]"
        }
      ],
      "stateMutability": "view",
      "type": "function"
    },
    {
      "inputs": [],
      "name": "fetchMarketplaceItems",
      "outputs": [
        {
          "components": [
            {
              "internalType": "uint256",
              "name": "itemId",
              "type": "uint256"
            },
            {
              "internalType": "address",
              "name": "nftContract",
              "type": "address"
            },
            {
              "internalType": "uint256",
              "name": "tokenId",
              "type": "uint256"
            },
            {
              "internalType": "address payable",
              "name": "seller",
              "type": "address"
            },
            {
              "internalType": "address payable",
              "name": "owner",
              "type": "address"
            },
            {
              "internalType": "address payable",
              "name": "feeVaultAddress",
              "type": "address"
            },
            {
              "internalType": "uint256",
              "name": "price",
              "type": "uint256"
            },
            {
              "internalType": "bool",
              "name": "sold",
              "type": "bool"
            }
          ],
          "internalType": "struct Marketplace.MarketplaceItem[]",
          "name": "",
          "type": "tuple[]"
        }
      ],
      "stateMutability": "view",
      "type": "function"
    },
    {
      "inputs": [],
      "name": "fetchMyNFTs",
      "outputs": [
        {
          "components": [
            {
              "internalType": "uint256",
              "name": "itemId",
              "type": "uint256"
            },
            {
              "internalType": "address",
              "name": "nftContract",
              "type": "address"
            },
            {
              "internalType": "uint256",
              "name": "tokenId",
              "type": "uint256"
            },
            {
              "internalType": "address payable",
              "name": "seller",
              "type": "address"
            },
            {
              "internalType": "address payable",
              "name": "owner",
              "type": "address"
            },
            {
              "internalType": "address payable",
              "name": "feeVaultAddress",
              "type": "address"
            },
            {
              "internalType": "uint256",
              "name": "price",
              "type": "uint256"
            },
            {
              "internalType": "bool",
              "name": "sold",
              "type": "bool"
            }
          ],
          "internalType": "struct Marketplace.MarketplaceItem[]",
          "name": "",
          "type": "tuple[]"
        }
      ],
      "stateMutability": "view",
      "type": "function"
    },
    {
      "inputs": [],
      "name": "getFeePercent",
      "outputs": [
        {
          "internalType": "uint256",
          "name": "",
          "type": "uint256"
        }
      ],
      "stateMutability": "view",
      "type": "function"
    },
    {
      "inputs": [
        {
          "internalType": "uint256",
          "name": "_newFeePercent",
          "type": "uint256"
        }
      ],
      "name": "setFeePercent",
      "outputs": [],
      "stateMutability": "nonpayable",
      "type": "function"
    },
    {
      "inputs": [
        {
          "internalType": "address payable",
          "name": "_newVaultAddress",
          "type": "address"
        }
      ],
      "name": "setFeeVaultAddress",
      "outputs": [],
      "stateMutability": "nonpayable",
      "type": "function"
    }
  ],
  "transactionHash": "0x17f108879cf8945c30c0c86d41b87a1d0cc14a2b922f209ed961c1255ebe17a5",
  "args": [
    "0xc3Ab493d0d06c700d9daF7Ea58aBBe12038ec474"
  ],
  "numDeployments": 1,
  "solcInputHash": "5c574b826d68df081cfbed52e81a5204",
  "bytecode": "0x608060405260c860055534801561001557600080fd5b506040516116423803806116428339810160408190526100349161006c565b600160005560038054336001600160a01b031991821617909155600480549091166001600160a01b039290921691909117905561009a565b60006020828403121561007d578081fd5b81516001600160a01b0381168114610093578182fd5b9392505050565b611599806100a96000396000f3fe6080604052600436106100b15760003560e01c8063b67c15b411610069578063bf4892bb1161004e578063bf4892bb14610184578063ed88c68e14610197578063f064c32e1461019f57600080fd5b8063b67c15b41461014f578063be74264d1461016f57600080fd5b8063202e37401161009a578063202e3740146100f65780637ce3489b1461010b5780637fd6f15c1461012b57600080fd5b806301ae591a146100b657806305ae31e4146100e1575b600080fd5b3480156100c257600080fd5b506100cb6101b4565b6040516100d8919061139a565b60405180910390f35b6100f46100ef36600461134e565b61039f565b005b34801561010257600080fd5b506100cb610701565b34801561011757600080fd5b506100f4610126366004611382565b61092a565b34801561013757600080fd5b5061014160055481565b6040519081526020016100d8565b34801561015b57600080fd5b506100f461016a366004611307565b610a2a565b34801561017b57600080fd5b50600554610141565b6100f4610192366004611323565b610b14565b6100f4610da8565b3480156101ab57600080fd5b506100cb610ed8565b606060006101c160015490565b905060006101ce60025490565b6001546101db9190611503565b90506000808267ffffffffffffffff81111561020757634e487b7160e01b600052604160045260246000fd5b60405190808252806020026020018201604052801561027657816020015b604080516101008101825260008082526020808301829052928201819052606082018190526080820181905260a0820181905260c0820181905260e082015282526000199092019101816102255790505b50905060005b848110156103965760006006816102948460016114ac565b81526020810191909152604001600020600401546001600160a01b031614156103845760006102c48260016114ac565b6000818152600660208181526040928390208351610100810185528154815260018201546001600160a01b0390811693820193909352600282015494810194909452600381015482166060850152600481015482166080850152600581015490911660a08401529081015460c0830152600781015460ff16151560e083015285519293509185908790811061036957634e487b7160e01b600052603260045260246000fd5b602090810291909101015261037f6001866114ac565b945050505b8061038e8161151a565b91505061027c565b50949350505050565b600260005414156103f75760405162461bcd60e51b815260206004820152601f60248201527f5265656e7472616e637947756172643a207265656e7472616e742063616c6c0060448201526064015b60405180910390fd5b600260005561040581611101565b3410156104795760405162461bcd60e51b8152602060048201526024808201527f5072696365206d75737420626520657175616c20746f206c697374696e67207060448201527f726963650000000000000000000000000000000000000000000000000000000060648201526084016103ee565b610487600180546001019055565b600061049260015490565b9050604051806101000160405280828152602001856001600160a01b03168152602001848152602001336001600160a01b0316815260200160006001600160a01b03168152602001600460009054906101000a90046001600160a01b03166001600160a01b0316815260200183815260200160001515815250600660008381526020019081526020016000206000820151816000015560208201518160010160006101000a8154816001600160a01b0302191690836001600160a01b031602179055506040820151816002015560608201518160030160006101000a8154816001600160a01b0302191690836001600160a01b0316021790555060808201518160040160006101000a8154816001600160a01b0302191690836001600160a01b0316021790555060a08201518160050160006101000a8154816001600160a01b0302191690836001600160a01b0316021790555060c0820151816006015560e08201518160070160006101000a81548160ff021916908315150217905550905050836001600160a01b03166323b872dd3330866040518463ffffffff1660e01b8152600401610662939291906001600160a01b039384168152919092166020820152604081019190915260600190565b600060405180830381600087803b15801561067c57600080fd5b505af1158015610690573d6000803e3d6000fd5b5050600454604080513381526000602082018190526001600160a01b03938416828401526060820188905260808201529051879450918816925084917f33768c4e9b52de683c57284d216d57ca91f417bba24a0470a461a15206ec19af9181900360a00190a4505060016000555050565b6060600061070e60015490565b905060008060005b8381101561077157336006600061072e8460016114ac565b81526020810191909152604001600020600401546001600160a01b0316141561075f5761075c6001846114ac565b92505b806107698161151a565b915050610716565b5060008267ffffffffffffffff81111561079b57634e487b7160e01b600052604160045260246000fd5b60405190808252806020026020018201604052801561080a57816020015b604080516101008101825260008082526020808301829052928201819052606082018190526080820181905260a0820181905260c0820181905260e082015282526000199092019101816107b95790505b50905060005b848110156103965733600660006108288460016114ac565b81526020810191909152604001600020600401546001600160a01b031614156109185760006108588260016114ac565b6000818152600660208181526040928390208351610100810185528154815260018201546001600160a01b0390811693820193909352600282015494810194909452600381015482166060850152600481015482166080850152600581015490911660a08401529081015460c0830152600781015460ff16151560e08301528551929350918590879081106108fd57634e487b7160e01b600052603260045260246000fd5b60209081029190910101526109136001866114ac565b945050505b806109228161151a565b915050610810565b6003546001600160a01b031633146109845760405162461bcd60e51b815260206004820152601760248201527f43616c6c6572206973206e6f7420746865206f776e657200000000000000000060448201526064016103ee565b600081116109d45760405162461bcd60e51b815260206004820152600f60248201527f426164206665652070657263656e74000000000000000000000000000000000060448201526064016103ee565b6107d08110610a255760405162461bcd60e51b815260206004820152601160248201527f666565206c657373207468616e2032302500000000000000000000000000000060448201526064016103ee565b600555565b6003546001600160a01b03163314610a845760405162461bcd60e51b815260206004820152601760248201527f43616c6c6572206973206e6f7420746865206f776e657200000000000000000060448201526064016103ee565b6001600160a01b038116610ada5760405162461bcd60e51b815260206004820152600b60248201527f426164204164647265737300000000000000000000000000000000000000000060448201526064016103ee565b600480547fffffffffffffffffffffffff0000000000000000000000000000000000000000166001600160a01b0392909216919091179055565b60026000541415610b675760405162461bcd60e51b815260206004820152601f60248201527f5265656e7472616e637947756172643a207265656e7472616e742063616c6c0060448201526064016103ee565b600260008181558281526006602081905260409091209081015491015434821115610bfc576040805162461bcd60e51b81526020600482015260248101919091527f506c65617365207375626d6974207468652061736b696e67207072696365206960448201527f6e206f7264657220746f20636f6d706c6574652074686520707572636861736560648201526084016103ee565b6004546001600160a01b031615610c62576000610c1883611101565b6004546040519192506001600160a01b03169082156108fc029083906000818181858888f19350505050158015610c53573d6000803e3d6000fd5b50610c5e8382611179565b9250505b6000838152600660205260408082206003015490516001600160a01b039091169184156108fc02918591818181858888f19350505050158015610ca9573d6000803e3d6000fd5b506040517f23b872dd000000000000000000000000000000000000000000000000000000008152306004820152336024820152604481018290526001600160a01b038516906323b872dd90606401600060405180830381600087803b158015610d1157600080fd5b505af1158015610d25573d6000803e3d6000fd5b50505060008481526006602052604090206004810180547fffffffffffffffffffffffff0000000000000000000000000000000000000000163317905560070180547fffffffffffffffffffffffffffffffffffffffffffffffffffffffffffffff0016600117905550610d9d600280546001019055565b505060016000555050565b60026000541415610dfb5760405162461bcd60e51b815260206004820152601f60248201527f5265656e7472616e637947756172643a207265656e7472616e742063616c6c0060448201526064016103ee565b600260005534610e4d5760405162461bcd60e51b815260206004820152601160248201527f42616420646f6e61746520616d6f756e7400000000000000000000000000000060448201526064016103ee565b6004546040516001600160a01b03909116903480156108fc02916000818181858888f19350505050158015610e86573d6000803e3d6000fd5b50600454604080513381526001600160a01b0390921660208301523482820152517f88dcaca629d63d86330e97adc358b13dd0ebd703239aea96b7ea2fb331b16f4e9181900360600190a16001600055565b60606000610ee560015490565b905060008060005b83811015610f48573360066000610f058460016114ac565b81526020810191909152604001600020600301546001600160a01b03161415610f3657610f336001846114ac565b92505b80610f408161151a565b915050610eed565b5060008267ffffffffffffffff811115610f7257634e487b7160e01b600052604160045260246000fd5b604051908082528060200260200182016040528015610fe157816020015b604080516101008101825260008082526020808301829052928201819052606082018190526080820181905260a0820181905260c0820181905260e08201528252600019909201910181610f905790505b50905060005b84811015610396573360066000610fff8460016114ac565b81526020810191909152604001600020600301546001600160a01b031614156110ef57600061102f8260016114ac565b6000818152600660208181526040928390208351610100810185528154815260018201546001600160a01b0390811693820193909352600282015494810194909452600381015482166060850152600481015482166080850152600581015490911660a08401529081015460c0830152600781015460ff16151560e08301528551929350918590879081106110d457634e487b7160e01b600052603260045260246000fd5b60209081029190910101526110ea6001866114ac565b945050505b806110f98161151a565b915050610fe7565b60008082116111525760405162461bcd60e51b815260206004820152601c60248201527f5072696365206d757374206265206174206c656173742031207765690000000060448201526064016103ee565b61117361271061116d600554856111c290919063ffffffff16565b9061125d565b92915050565b60006111bb83836040518060400160405280601e81526020017f536166654d6174683a207375627472616374696f6e206f766572666c6f77000081525061129f565b9392505050565b6000826111d157506000611173565b60006111dd83856114e4565b9050826111ea85836114c4565b146111bb5760405162461bcd60e51b815260206004820152602160248201527f536166654d6174683a206d756c7469706c69636174696f6e206f766572666c6f60448201527f770000000000000000000000000000000000000000000000000000000000000060648201526084016103ee565b60006111bb83836040518060400160405280601a81526020017f536166654d6174683a206469766973696f6e206279207a65726f0000000000008152506112d9565b600081848411156112c35760405162461bcd60e51b81526004016103ee919061143b565b5060006112d08486611503565b95945050505050565b600081836112fa5760405162461bcd60e51b81526004016103ee919061143b565b5060006112d084866114c4565b600060208284031215611318578081fd5b81356111bb8161154b565b60008060408385031215611335578081fd5b82356113408161154b565b946020939093013593505050565b600080600060608486031215611362578081fd5b833561136d8161154b565b95602085013595506040909401359392505050565b600060208284031215611393578081fd5b5035919050565b602080825282518282018190526000919060409081850190868401855b8281101561142e57815180518552868101516001600160a01b0390811688870152868201518787015260608083015182169087015260808083015182169087015260a0808301519091169086015260c0808201519086015260e09081015115159085015261010090930192908501906001016113b7565b5091979650505050505050565b6000602080835283518082850152825b818110156114675785810183015185820160400152820161144b565b818111156114785783604083870101525b50601f017fffffffffffffffffffffffffffffffffffffffffffffffffffffffffffffffe016929092016040019392505050565b600082198211156114bf576114bf611535565b500190565b6000826114df57634e487b7160e01b81526012600452602481fd5b500490565b60008160001904831182151516156114fe576114fe611535565b500290565b60008282101561151557611515611535565b500390565b600060001982141561152e5761152e611535565b5060010190565b634e487b7160e01b600052601160045260246000fd5b6001600160a01b038116811461156057600080fd5b5056fea264697066735822122002779241214210a06dbf530e3d359980efd57d3f49b65bbb9060a1031ca5955664736f6c63430008040033",
  "devdoc": {
    "kind": "dev",
    "methods": {},
    "version": 1
  },
  "userdoc": {
    "kind": "user",
    "methods": {},
    "version": 1
  },
  "storageLayout": {
    "storage": [
      {
        "astId": 10,
        "contract": "contracts/Marketplace.sol:Marketplace",
        "label": "_status",
        "offset": 0,
        "slot": "0",
        "type": "t_uint256"
      },
      {
        "astId": 1810,
        "contract": "contracts/Marketplace.sol:Marketplace",
        "label": "_items",
        "offset": 0,
        "slot": "1",
        "type": "t_struct(Counter)1484_storage"
      },
      {
        "astId": 1813,
        "contract": "contracts/Marketplace.sol:Marketplace",
        "label": "_soldItems",
        "offset": 0,
        "slot": "2",
        "type": "t_struct(Counter)1484_storage"
      },
      {
        "astId": 1815,
        "contract": "contracts/Marketplace.sol:Marketplace",
        "label": "owner",
        "offset": 0,
        "slot": "3",
        "type": "t_address_payable"
      },
      {
        "astId": 1817,
        "contract": "contracts/Marketplace.sol:Marketplace",
        "label": "feeVaultAddress",
        "offset": 0,
        "slot": "4",
        "type": "t_address_payable"
      },
      {
        "astId": 1820,
        "contract": "contracts/Marketplace.sol:Marketplace",
        "label": "feePercent",
        "offset": 0,
        "slot": "5",
        "type": "t_uint256"
      },
      {
        "astId": 1842,
        "contract": "contracts/Marketplace.sol:Marketplace",
        "label": "idToMarketplaceItem",
        "offset": 0,
        "slot": "6",
        "type": "t_mapping(t_uint256,t_struct(MarketplaceItem)1837_storage)"
      }
    ],
    "types": {
      "t_address": {
        "encoding": "inplace",
        "label": "address",
        "numberOfBytes": "20"
      },
      "t_address_payable": {
        "encoding": "inplace",
        "label": "address payable",
        "numberOfBytes": "20"
      },
      "t_bool": {
        "encoding": "inplace",
        "label": "bool",
        "numberOfBytes": "1"
      },
      "t_mapping(t_uint256,t_struct(MarketplaceItem)1837_storage)": {
        "encoding": "mapping",
        "key": "t_uint256",
        "label": "mapping(uint256 => struct Marketplace.MarketplaceItem)",
        "numberOfBytes": "32",
        "value": "t_struct(MarketplaceItem)1837_storage"
      },
      "t_struct(Counter)1484_storage": {
        "encoding": "inplace",
        "label": "struct Counters.Counter",
        "members": [
          {
            "astId": 1483,
            "contract": "contracts/Marketplace.sol:Marketplace",
            "label": "_value",
            "offset": 0,
            "slot": "0",
            "type": "t_uint256"
          }
        ],
        "numberOfBytes": "32"
      },
      "t_struct(MarketplaceItem)1837_storage": {
        "encoding": "inplace",
        "label": "struct Marketplace.MarketplaceItem",
        "members": [
          {
            "astId": 1822,
            "contract": "contracts/Marketplace.sol:Marketplace",
            "label": "itemId",
            "offset": 0,
            "slot": "0",
            "type": "t_uint256"
          },
          {
            "astId": 1824,
            "contract": "contracts/Marketplace.sol:Marketplace",
            "label": "nftContract",
            "offset": 0,
            "slot": "1",
            "type": "t_address"
          },
          {
            "astId": 1826,
            "contract": "contracts/Marketplace.sol:Marketplace",
            "label": "tokenId",
            "offset": 0,
            "slot": "2",
            "type": "t_uint256"
          },
          {
            "astId": 1828,
            "contract": "contracts/Marketplace.sol:Marketplace",
            "label": "seller",
            "offset": 0,
            "slot": "3",
            "type": "t_address_payable"
          },
          {
            "astId": 1830,
            "contract": "contracts/Marketplace.sol:Marketplace",
            "label": "owner",
            "offset": 0,
            "slot": "4",
            "type": "t_address_payable"
          },
          {
            "astId": 1832,
            "contract": "contracts/Marketplace.sol:Marketplace",
            "label": "feeVaultAddress",
            "offset": 0,
            "slot": "5",
            "type": "t_address_payable"
          },
          {
            "astId": 1834,
            "contract": "contracts/Marketplace.sol:Marketplace",
            "label": "price",
            "offset": 0,
            "slot": "6",
            "type": "t_uint256"
          },
          {
            "astId": 1836,
            "contract": "contracts/Marketplace.sol:Marketplace",
            "label": "sold",
            "offset": 0,
            "slot": "7",
            "type": "t_bool"
          }
        ],
        "numberOfBytes": "256"
      },
      "t_uint256": {
        "encoding": "inplace",
        "label": "uint256",
        "numberOfBytes": "32"
      }
    }
  }
}